:100000000C9434000C94E8000C94E8000C94E80084
:100010000C94E8000C94E8000C94DA000C94E800CE
:100020000C94E8000C94E8000C94E8000C94E800B0
:100030000C94E8000C94E8000C94E8000C94E800A0
:100040000C94E8000C94E8000C94AB000C94E800CD
:100050000C94E8000C94E8000C94E8000C94E80080
:100060000C94E8000C94E8001124A0E0B3E0ADBFCC
:10007000BEBF0F92A0E0B3E0CCE0D3E0E4EDF1E04E
:10008000AC17BD0719F005900D92FACFACE0B3E0C4
:100090008EE893E020E0A817B90711F02D93FBCF6D
:1000A00080E08093C50087E68093C40088E9809350
:1000B000C10086E08093C200789480E093E06CE019
:1000C00070E00E9468000E9487000E9498000895D6
:1000D00020E030E0A901F901A1E046175707E20747
:1000E000F30708F4A0E0A170A03081F4DC01A40FB4
:1000F000B51FAC91B091C000B072B030D9F3A093ED
:10010000C6004F5F5F4FEF4FFF4FE6CF08958091DE
:10011000C00080728030D9F38DE08093C60080915A
:10012000C00080728030D9F38AE08093C6000895C1
:1001300081E090E0F894A8952091600028612093D8
:10014000600020916000276420936000789483BF52
:10015000889593BFEFCF0F921F920FB60F92002496
:100160002F938F939F93AF93BF938091C6009091ED
:10017000C0009C719030A1F490918C0320918D036C
:10018000921B903869F090918C03939590938C0317
:1001900090918C039F77A92FBB27A45FBC4F8C93B2
:1001A000BF91AF919F918F912F910F900FBE1F9094
:1001B0000F9018950F930027A89504BF0091600039
:1001C0000861009360000027009360000F9118956C
:1001D0008895FECF48656C6C6F20576F726C6421F8
:00000001FF
